:020000040000FA
:1000000001288316031306309F0083160313303034
:10001000850083120313850183160313860183125F
:10002000031386010A30A300A601A7011728851E25
:100030001A284A28051E17281D2859200130A7070D
:10004000270886005220851E1D28262859200314C3
:100050000130A702031C3E2827088600051E26281B
:100060001D285920831203138601A701831203134D
:100070002608013EA6008500030108000314013094
:10008000A602031C47285920260885004E28850112
:10009000A6014A28FF30A60085004E28FF308600C2
:1000A000A700262883120313031D08000311312023
:1000B00008000130A3005C28B630A1005F28B630EC
:1000C000A2006228A20B6228A10B5F28A30B5C2868
:0200D000080026
:02400E00313F40
:00000001FF
