:020000040000FA
:100000000128831603138601831203138601061247
:1000100001303320023033200330332006303320C8
:100020000D303320283033208030332053304220AD
:10003000553042204C304220453042205930422039
:100040004D304220413042204E304220C0303320DB
:1000500053304220453042205A3042204530422021
:100060005230422032280612A000200E3A202008EA
:100070003A2008000F39A3000608F039230486004F
:100080004B200800A000200E8312031306163A200E
:1000900020083A20080086164F2086120800C83033
:0800A000A200A20B5128080088
:00000001FF
