:020000040000FA
:020000000528D1
:08000800402883160313811246
:100010008111011581100110831203130B178B1727
:100020008B160B11831203133D30810083160313CB
:1000300086018312031386018316031306309F0083
:100040008316031385018312031301308500A00179
:10005000A101A201A301A401A501A601A701A80174
:100060000130A9003328A90D29088500250886003C
:100070007420A90C290885002408860074203328E0
:10008000831203130B138B134D200B110B178B17BC
:10009000831203133D3081000900A20A14302202AA
:1000A000031953200800A2010311A30A0A302302F6
:1000B00003195E2023086920A40008000311A3018E
:1000C000A60A063026020319A60126086920A50003
:1000D000080082073F3406345B344F3466346D3495
:1000E0007D3407347F346F343A30A7003A30A800AB
:0A00F000A80B7828A70B762808005B
:00000001FF
